:020000020000FC
:10000000001F000FCF9600230F7F0595889400F9FD
:1000100008F408F008F408F0E8F7E8F3E8F7E8F384
:100020009895E9F3ECF7EDF7EDF3EFF7EFF3E8F37D
:10003000ECF3EAF3E9F7EAF7E8F7EEF7EEF3EBF7BC
:10004000EBF3089400FA0E940A00F8980070889474
:10005000D894F894A8940027C894E894B8949894F5
:100060000095001700070F3F00130A95D8950691D9
:1000700007910027080380038803099509940FB7A7
:1000800003950C940A000C910D910E910881099131
:100090000A910081019102910FAD07AD0FEF009120
:1000A000FFFFC89504910591000F0695002F880168
:1000B000009F000201950000002B0F6F0FBF0F91F2
:1000C0000F93A8DF08951895A5CF001F0795000B83
:1000D0000F4FF89AF899F89BCF970F6F00FD00FF2C
:1000E00008945894789428940FEF4894689438941E
:1000F00018948895E8950C930D930E9308830993B3
:100100000A930083019302930FAF07AF0093FFFFA1
:0A011000001B0F5F02950023A89565
:00000001FF
